:100000000C942A000C9447000C9447000C94470071
:100010000C9447000C9447000C9447000C94470044
:100020000C9447000C9447000C9447000C94470034
:100030000C9447000C9498000C9447000C944700D3
:100040000C9447000C9447000C9447000C94470014
:100050000C94470011241FBECFE5D8E0DEBFCDBF12
:1000600010E0A0E6B0E0E0E7F9E002C005900D92F4
:10007000A037B107D9F710E0A0E7B0E001C01D92AA
:10008000A638B107E1F70E9449000C94B6040C941D
:1000900000000E9426040E945C0088E790E066E071
:1000A00070E00E948D00809170008130E1F780E661
:1000B00090E00E946603FFCF10BC83E389B980B54E
:1000C000886080BD80B5826080BD80B5846080BD61
:1000D000549A539A08955D9BFECF8CB908955F9B07
:1000E000FECF8CB10895FC0104C05D9BFECF8CB99E
:1000F000319680818823C9F70895FC017894569A37
:1001000070938300609382009093730080937200D9
:100110005D9BFECF80818CB908957894579A909317
:100120007500809374007093850060938400089537
:100130001F920F920FB60F9211242F933F938F931C
:100140009F93EF93FF9320917600309177002530B5
:10015000310529F481E0809371005798F8948091DB
:10016000840090918500892B31F481E080937100A7
:100170005798F89419C0E0917400F0917500309789
:1001800099F08CB1E20FF31F80832F5F3F4F3093C4
:1001900077002093760080918400909185000197EC
:1001A0009093850080938400FF91EF919F918F91B0
:1001B0003F912F910F900FBE0F901F9018959C01AB
:1001C0008130910551F18130910548F082309105DF
:1001D00009F43DC08330910509F072C055C042302A
:1001E000510561F42AB381E090E002C0880F991FA5
:1001F0006A95E2F7809582238ABB089543305105C2
:1002000009F05EC02AB381E090E002C0880F991F18
:100210006A95E2F7282B2ABB08954230510551F424
:1002200097B302C0220F331F6A95E2F7822F8095A1
:1002300089230BC04330510509F042C087B302C087
:10024000220F331F6A95E2F7822B87BB0895423055
:10025000510561F424B381E090E002C0880F991F3A
:100260006A95E2F78095822384BB08954330510557
:1002700039F524B381E090E002C0880F991F6A9598
:10028000E2F7282B24BB08954230510561F421B3D5
:1002900081E090E002C0880F991F6A95E2F780958F
:1002A000822381BB08954330510551F421B381E08D
:1002B00090E002C0880F991F6A95E2F7282B21BBB6
:1002C00008959C018130910531F18130910540F014
:1002D00082309105D1F18330910509F06AC04FC099
:1002E0004115510559F42BB381E090E002C0880F0D
:1002F000991F6A95E2F7809582230BC04130510522
:1003000009F057C08BB302C0440F551F6A95E2F73E
:10031000842B8BBB08954115510551F498B302C04D
:10032000220F331F6A95E2F7822F809589230BC035
:100330004130510509F03DC088B302C0440F551F3C
:100340006A95E2F7842B88BB08954115510559F44D
:1003500025B381E090E002C0880F991F6A95E2F70B
:10036000809582230AC04130510519F585B302C03A
:10037000440F551F6A95E2F7842B85BB08954115FC
:10038000510561F422B381E090E002C0880F991F0B
:100390006A95E2F78095822382BB0895413051052A
:1003A00041F482B302C0440F551F6A95E2F7842BD3
:1003B00082BB08958130910561F08130910538F05C
:1003C0008230910541F0039779F080E0089589B378
:1003D00003C086B301C083B390E002C095958795B2
:1003E0006A95E2F78170089580B390E002C0959518
:1003F00087956A95E2F7817008959C018130910597
:10040000D9F08130910540F08230910519F18330A7
:10041000910509F03EC02EC09AB321E030E002C041
:10042000220F331F6A95E2F7822F809589238ABBBA
:100430008BB3822B8BBB089597B302C0220F331F5F
:100440006A95E2F7822F8095892387BB88B3822B38
:1004500088BB089594B321E030E002C0220F331F1F
:100460006A95E2F7822F8095892384BB85B3822B1E
:1004700085BB089591B321E030E002C0220F331F05
:100480006A95E2F7822F8095892381BB82B3822B04
:1004900082BB08959C0181309105A9F081309105BE
:1004A00038F082309105C1F08330910551F51FC0BD
:1004B0002BB381E090E002C0880F991F6A95E2F7A4
:1004C00028272BBB089588B302C0220F331F6A95DB
:1004D000E2F7822788BB089525B381E090E002C04F
:1004E000880F991F6A95E2F7282725BB089522B344
:1004F00081E090E002C0880F991F6A95E2F72827F3
:1005000022BB08950F931F9380E090E062E070E0BB
:1005100041E050E00E94610100EA1FE0C80101973C
:10052000F1F780E090E062E070E040E050E00E948F
:100530006101C8010197F1F71F910F910895EF92A2
:10054000FF920F931F93082F482F441F4427441FE7
:1005500081E090E064E070E050E00E946101402F93
:10056000429546954695437050E04170507081E049
:1005700090E062E070E00E946101402F4295469554
:10058000477050E04170507081E090E061E070E0B1
:100590000E946101402F42954F7050E041705070B1
:1005A00081E090E060E070E00E94610180E090E016
:1005B00063E070E041E050E00E9461010E9482022D
:1005C00080EDE82E87E0F82EC7010197F1F7402F64
:1005D00046954695469550E04170507081E090E018
:1005E00064E070E00E946101402F4695469550E01E
:1005F0004170507081E090E062E070E00E94610123
:10060000402F469550E04170507081E090E061E0ED
:1006100070E00E94610110E00170107081E090E0D4
:1006200060E070E0A8010E94610180E090E063E07A
:1006300070E041E050E00E9461010E948202C70127
:100640000197F1F71F910F91FF90EF9008950F938D
:100650001F93CF93DF939C01C0E0D0E000E010E057
:1006600019C0CE0153E0880F991F5A95E1F7CC0FBE
:10067000DD1FC80FD91FC9016AE070E00E94A20403
:10068000C80FD91FC9016AE070E00E94A2049B0153
:100690000F5F1F4F2115310521F710C0CE016AE011
:1006A00070E00E94A204805D0E949F02CE016AE079
:1006B00070E00E94A204EB010150104001151105E9
:1006C00069F7DF91CF911F910F9108950F931F93B9
:1006D000CF93DF93EC0108EC10E00AC00E949F0268
:1006E00088EE93E0F8013197F1F70197D9F7219659
:1006F0008881882399F7DF91CF911F910F910895F9
:10070000EF92FF920F931F93082F482F441F442707
:10071000441F81E090E064E070E050E00E946101DD
:10072000402F429546954695437050E04170507079
:1007300081E090E062E070E00E946101402F42950C
:100740004695477050E04170507081E090E061E064
:1007500070E00E946101402F42954F7050E041705F
:10076000507081E090E060E070E00E94610180E004
:1007700090E063E070E040E050E00E9461010E9480
:10078000820260EDE62E67E0F62EC7010197F1F7D1
:10079000402F46954695469550E04170507081E057
:1007A00090E064E070E00E946101402F469546951C
:1007B00050E04170507081E090E062E070E00E9493
:1007C0006101402F469550E04170507081E090E00B
:1007D00061E070E00E94610110E00170107081E042
:1007E00090E060E070E0A8010E94610180E090E08C
:1007F00063E070E040E050E00E9461010E948202EC
:10080000C7010197F1F71F910F91FF90EF900895A5
:10081000982F8150823070F4613160F4662351F07A
:10082000913019F4862F815806C0923021F4862F1A
:10083000815401C080E80E94800380ED97E0019719
:10084000F1F7089581E00E9480030895EF92FF92EE
:100850000F931F9380E991E028EC30E0F901319784
:10086000F1F70197D9F781E090E060E070E043E0B4
:1008700050E00E94DF0081E090E061E070E043E042
:1008800050E00E94DF0081E090E062E070E043E031
:1008900050E00E94DF0081E090E064E070E043E01F
:1008A00050E00E94DF0080E090E063E070E043E011
:1008B00050E00E94DF0080E090E062E070E043E002
:1008C00050E00E94DF0080E090E060E070E043E0F4
:1008D00050E00E94DF0080E090E060E070E040E0E7
:1008E00050E00E94610183E30E94800370E2E72EE2
:1008F0007EE4F72EC7010197F1F782E30E9480039F
:1009000000ED17E0C8010197F1F788E20E9480032B
:10091000C8010197F1F78EE00E948003C80101979A
:10092000F1F781E00E948003C7010197F1F786E0AB
:100930000E948003C8010197F1F71F910F91FF906A
:10094000EF900895AA1BBB1B51E107C0AA1FBB1F54
:10095000A617B70710F0A61BB70B881F991F5A954B
:10096000A9F780959095BC01CD010895F894FFCF2B
:10097000446F6E650053656E64696E670000000029
:00000001FF
