:100000000C942A000C9434000C9434000C943400AA
:100010000C9434000C9434000C9434000C94340090
:100020000C9434000C9434000C9434000C94340080
:100030000C9434000C9434000C9434000C94340070
:100040000C9434000C9434000C9434000C94340060
:100050000C94340011241FBECFE5D8E0DEBFCDBF25
:100060000E9436000C9431040C9400000E94A103FD
:100070000E943F000E9452000E941A02FBCF10BC57
:1000800083E389B980B5886080BD80B5826080BD1A
:1000900080B5846080BD549A539A08955D9BFECFCD
:1000A0008CB908955F9BFECF8CB10895089588E0C8
:1000B000089508959C018130910551F18130910599
:1000C00048F08230910509F43DC08330910509F074
:1000D00072C055C04230510561F42AB381E090E00E
:1000E00002C0880F991F6A95E2F7809582238ABB28
:1000F00008954330510509F05EC02AB381E090E0D5
:1001000002C0880F991F6A95E2F7282B2ABB089531
:100110004230510551F497B302C0220F331F6A9544
:10012000E2F7822F809589230BC04330510509F0F7
:1001300042C087B302C0220F331F6A95E2F7822BB9
:1001400087BB08954230510561F424B381E090E00B
:1001500002C0880F991F6A95E2F78095822384BBBD
:1001600008954330510539F524B381E090E002C091
:10017000880F991F6A95E2F7282B24BB0895423017
:10018000510561F421B381E090E002C0880F991F0E
:100190006A95E2F78095822381BB0895433051052B
:1001A00051F421B381E090E002C0880F991F6A9555
:1001B000E2F7282B21BB08959C018130910531F194
:1001C0008130910540F082309105D1F18330910565
:1001D00009F06AC04FC04115510559F42BB381E0B5
:1001E00090E002C0880F991F6A95E2F780958223FC
:1001F0000BC04130510509F057C08BB302C0440F0A
:10020000551F6A95E2F7842B8BBB08954115510564
:1002100051F498B302C0220F331F6A95E2F7822F80
:10022000809589230BC04130510509F03DC088B34A
:1002300002C0440F551F6A95E2F7842B88BB0895CE
:100240004115510559F425B381E090E002C0880FB3
:10025000991F6A95E2F7809582230AC041305105C3
:1002600019F585B302C0440F551F6A95E2F7842B38
:1002700085BB08954115510561F422B381E090E0FA
:1002800002C0880F991F6A95E2F78095822382BB8E
:1002900008954130510541F482B302C0440F551F07
:1002A0006A95E2F7842B82BB08958130910561F055
:1002B0008130910538F08230910541F0039779F053
:1002C00080E0089589B303C086B301C083B390E092
:1002D00002C0959587956A95E2F78170089580B37D
:1002E00090E002C0959587956A95E2F78170089530
:1002F0009C0181309105D9F08130910540F0823028
:10030000910519F18330910509F03EC02EC09AB3D2
:1003100021E030E002C0220F331F6A95E2F7822FFE
:10032000809589238ABB8BB3822B8BBB089597B3AF
:1003300002C0220F331F6A95E2F7822F809589232E
:1003400087BB88B3822B88BB089594B321E030E04B
:1003500002C0220F331F6A95E2F7822F809589230E
:1003600084BB85B3822B85BB089591B321E030E037
:1003700002C0220F331F6A95E2F7822F80958923EE
:1003800081BB82B3822B82BB08959C018130910591
:10039000A9F08130910538F082309105C1F08330A9
:1003A000910551F51FC02BB381E090E002C0880F8A
:1003B000991F6A95E2F728272BBB089588B302C0DE
:1003C000220F331F6A95E2F7822788BB089525B371
:1003D00081E090E002C0880F991F6A95E2F7282714
:1003E00025BB089522B381E090E002C0880F991FD9
:1003F0006A95E2F7282722BB08950F931F9380E0A8
:1004000090E062E070E041E050E00E94DC0000EA31
:100410001FE0C8010197F1F780E090E062E070E032
:1004200040E050E00E94DC00C8010197F1F71F9105
:100430000F910895EF92FF920F931F93082F482F6B
:10044000441F4427441F81E090E064E070E050E0E6
:100450000E94DC00402F429546954695437050E03F
:100460004170507081E090E062E070E00E94DC003A
:10047000402F42954695477050E04170507081E0A2
:1004800090E061E070E00E94DC00402F42954F70E8
:1004900050E04170507081E090E060E070E00E94B8
:1004A000DC0080E090E063E070E041E050E00E941A
:1004B000DC000E94FD0180EDE82E87E0F82EC701E8
:1004C0000197F1F7402F46954695469550E04170CB
:1004D000507081E090E064E070E00E94DC00402F0A
:1004E0004695469550E04170507081E090E062E0A2
:1004F00070E00E94DC00402F469550E04170507043
:1005000081E090E061E070E00E94DC0010E00170AA
:10051000107081E090E060E070E0A8010E94DC00D3
:1005200080E090E063E070E041E050E00E94DC0099
:100530000E94FD01C7010197F1F71F910F91FF90F4
:10054000EF9008950F931F93CF93DF939C01C0E02A
:10055000D0E000E010E019C0CE0153E0880F991FF1
:100560005A95E1F7CC0FDD1FC80FD91FC9016AE00A
:1005700070E00E941D04C80FD91FC9016AE070E035
:100580000E941D049B010F5F1F4F2115310521F7AC
:1005900010C0CE016AE070E00E941D04805D0E94E0
:1005A0001A02CE016AE070E00E941D04EB010150C6
:1005B00010400115110569F7DF91CF911F910F913F
:1005C00008950F931F93CF93DF93EC0108EC10E095
:1005D0000AC00E941A0288EE93E0F8013197F1F701
:1005E0000197D9F721968881882399F7DF91CF91D8
:1005F0001F910F910895EF92FF920F931F93082F71
:10060000482F441F4427441F81E090E064E070E0DD
:1006100050E00E94DC00402F42954695469543707D
:1006200050E04170507081E090E062E070E00E9424
:10063000DC00402F42954695477050E04170507065
:1006400081E090E061E070E00E94DC00402F429584
:100650004F7050E04170507081E090E060E070E0D9
:100660000E94DC0080E090E063E070E040E050E059
:100670000E94DC000E94FD0160EDE62E67E0F62E90
:10068000C7010197F1F7402F46954695469550E0F2
:100690004170507081E090E064E070E00E94DC0006
:1006A000402F4695469550E04170507081E090E0B3
:1006B00062E070E00E94DC00402F469550E04170FF
:1006C000507081E090E061E070E00E94DC0010E09A
:1006D0000170107081E090E060E070E0A8010E947D
:1006E000DC0080E090E063E070E040E050E00E94D9
:1006F000DC000E94FD01C7010197F1F71F910F91E6
:10070000FF90EF900895982F8150823070F46131FE
:1007100060F4662351F0913019F4862F815806C099
:10072000923021F4862F815401C080E80E94FB02A0
:1007300080ED97E00197F1F7089581E00E94FB02B8
:100740000895EF92FF920F931F9380E991E028ECB8
:1007500030E0F9013197F1F70197D9F781E090E0A6
:1007600060E070E043E050E00E945A0081E090E0D9
:1007700061E070E043E050E00E945A0081E090E0C8
:1007800062E070E043E050E00E945A0081E090E0B7
:1007900064E070E043E050E00E945A0080E090E0A6
:1007A00063E070E043E050E00E945A0080E090E097
:1007B00062E070E043E050E00E945A0080E090E088
:1007C00060E070E043E050E00E945A0080E090E07A
:1007D00060E070E040E050E00E94DC0083E30E94B3
:1007E000FB0270E2E72E7EE4F72EC7010197F1F7D6
:1007F00082E30E94FB0200ED17E0C8010197F1F7C8
:1008000088E20E94FB02C8010197F1F78EE00E9486
:10081000FB02C8010197F1F781E00E94FB02C701CA
:100820000197F1F786E00E94FB02C8010197F1F7FA
:100830001F910F91FF90EF900895AA1BBB1B51E1F0
:1008400007C0AA1FBB1FA617B70710F0A61BB70B40
:10085000881F991F5A95A9F780959095BC01CD01E5
:060860000895F894FFCF9B
:00000001FF
